:100000000C94F2000C942F060C94D9050C940F015B
:100010000C940F010C940F010C940F010C940F0120
:100020000C940F010C940F010C940F010C940F0110
:100030000C940F010C944F060C940F010C940F01BB
:100040000C94F3050C940F010C9495060C940F017D
:100050000C940F010C940F010C940F010C940F01E0
:100060000C940F010C940F0108000000BE9224496B
:10007000123EABAAAA2ABECDCCCC4C3E00000080DA
:10008000BEABAAAAAA3E00000000BF000000803F4D
:100090000000000000084178D3BB4387D1133D190D
:1000A0000E3CC3BD4282AD2B3E68EC8276BED98F3A
:1000B000E1A93E4C80EFFFBE01C4FF7F3F0000007E
:1000C000000007634236B79BD8A71A39685618AEA6
:1000D000BAAB558C1D3CB7CC5763BD6DEDFD753E7D
:1000E000F6177231BF000000803F00407A10F35ACB
:1000F00000A0724E18090010A5D4E80000E8764868
:10010000170000E40B54020000CA9A3B000000E113
:10011000F505000080969800000040420F000000A6
:10012000A08601000000102700000000E803000086
:1001300000006400000000000A0000000000010050
:10014000000000002C76D888DC674F0823DFC1DF71
:10015000AE59E1B1B796E5E3E453C63AE651997674
:1001600096E8E6C28426EB898C9B62ED407C6FFCAE
:10017000EFBC9C9F40F2BAA56FA5F490055A2AF7F0
:100180005C936B6CF9676DC11BFCE0E40D47FEF5F9
:1001900020E6B500D0ED902E030094357705008061
:1001A000841E080000204E0A000000C80C333333C0
:1001B000330F986E12831141EF8D2114893BE65560
:1001C00016CFFEE6DB18D1844B381BF77C1D901D43
:1001D000A4BBE424203284725E228100C9F124ECA5
:1001E000A1E53D2711241FBECFEFD8E0DEBFCDBF74
:1001F00013E0A0E0B1E0E0E2F3E202C005900D926E
:10020000A032B107D9F723E0A0E2B3E001C01D920C
:10021000A23AB207E1F70E94E3060C948E110C9407
:1002200000001092B90088E48093B800089594EA21
:100230009093BC009091BC009923E4F79091B90091
:10024000987F90932803909128039830C1F480936D
:10025000BB0084E88093BC008091BC008823E4F755
:100260008091B900887F809328038091280388318A
:1002700041F080912803803231F482E0089580E0DB
:10028000089581E0089583E0089594EA9093BC0076
:100290009091BC009923E4F79091B900987F9093D6
:1002A0002803909128039031C1F48093BB0084E827
:1002B0008093BC008091BC008823E4F78091B90052
:1002C000887F8093280380912803803441F08091B7
:1002D0002803803231F482E0089580E0089581E0BF
:1002E000089583E0089584E98093BC008091BC0068
:1002F00084FDFCCF08958093BB0084E88093BC000C
:100300008091BC008823E4F78091B900887F8093B6
:10031000280380912803883231F0809128038033AC
:1003200021F481E0089580E0089582E0089584EC4E
:100330008093BC008091BC008823E4F78091BB00CF
:10034000089584E88093BC008091BC008823E4F782
:100350008091BB000895CF93C82F8EE70E941701AC
:100360008C2F0E947B010E947301CF910895CF933F
:10037000C82F809127038F709C2F907F892B8460DA
:10038000809327030E94AB0185E88A95F1F700006E
:10039000809127038B7F809327030E94AB0185E820
:1003A0008A95F1F7000080E1C89F900111248091A7
:1003B00027038F70822B8460809327030E94AB01F8
:1003C00085E88A95F1F70000809127038B7F809361
:1003D00027030E94AB0185E88A95F1F70000CF91D1
:1003E0000895CF93C82F88E0809327030E94AB0124
:1003F00085E88A95F1F700008C2F0E94B701CF9114
:100400000895CF93C82F8091270389608093270395
:100410000E94AB0185E88A95F1F700008C2F0E94BD
:10042000B701CF910895CF93DF93EC0103C02196DC
:100430000E94010288818111FACFDF91CF91089546
:1004400081E00E94F10187EC90E00197F1F700C094
:100450000000089584E0809327030E94AB0185E8A3
:100460008A95F1F7000083E00E94F10182E00E948A
:10047000F10188E20E94F1018EE00E94F10181E029
:100480000E94F10186E00E94F10180E80E94F101E2
:100490000895CF93DF9300D000D0CDB7DEB790E8BA
:1004A000998390EC9A8394E99B8394ED9C83E82F45
:1004B000F0E0319781E090E08C0F9D1FE80FF91F6D
:1004C0008081860F81500E94F1018FE891E00197B1
:1004D000F1F700C000000F900F900F900F90DF9188
:1004E000CF910895CF93C82F80ED0E9417018C2FD4
:1004F0000E947B0181ED0E9445010E94970180933B
:1005000047030E949701809375030E94A101809385
:1005100064030E947301CF910895CF93C82F80ED9B
:100520000E9417018C2F0E947B0181ED0E944501E2
:100530000E949701809377030E949701809379032B
:100540000E949701809346030E94A1018093760345
:100550000E947301CF91089588EB0E9417010E94B9
:1005600073010895CF93DF930E94AC0288EB0E9441
:10057000170183E00E947B0180E00E947B0184E000
:100580000E947B010E9473018FE59AEE0197F1F7BB
:1005900000C0000089EB0E941701C0E0D0E007C056
:1005A0000E949701FE01E55DFC4F80832196C730D4
:1005B000D105B4F30E94A101809332030E9473011C
:1005C000DF91CF910895FC018FEF9FEF17C0AF012E
:1005D0004F5F5F4F2081822720E00CC080FF07C063
:1005E0009695879561E0862760EA962702C09695E2
:1005F00087952F5F283090F3632FFA013FEF360F76
:100600006111E5CF0895EBE2F3E0278130E0322F6E
:1006100022274681242BFC013183208308951092E8
:10062000C50080E18093C40082E08093C00086E032
:100630008093C20088E98093C10008959091C00022
:1006400095FFFCCF8093C6000895CF93DF93EC0114
:1006500003C00E941E03219688818111FACFDF9189
:10066000CF9108958AE291E00E9425032FEF89E659
:1006700098E1215080409040E1F700C000008FE2F7
:1006800091E00E9425032FEF89E698E121508040F8
:100690009040E1F700C0000086E391E00E9425034E
:1006A0002FEF89E698E1215080409040E1F700C0AB
:1006B000000084E491E00E9425032FEF89E698E191
:1006C000215080409040E1F700C0000082E591E0B9
:1006D0000E9425032FEF87EA91E621508040904049
:1006E000E1F700C000000895EF92FF920F931F936F
:1006F000CF93DF93CDB7DEB7C45BD1090FB6F894C3
:10070000DEBF0FBECDBF8BE4EFE6F1E09E012F5FB1
:100710003F4F7901D90101900D928A95E1F78E0141
:10072000055A1F4F88E2EAEBF1E0D80101900D92E3
:100730008A95E1F7C8010E9425033FEF87E893E11E
:10074000315080409040E1F700C00000F701019077
:100750000020E9F73197EE19FF09FF93EF9382EE3E
:1007600091E09F938F931F930F930E94620CC80197
:100770000E9425032FEF31EE84E02150304080406D
:10078000E1F700C00000C7010E9425039FEF2DE3A1
:1007900039E4915020403040E1F700C0000082EF82
:1007A00091E00E9425038FEF93EC29E08150904067
:1007B0002040E1F700C000000F900F900F900F90C5
:1007C0000F900F90CC54DF4F0FB6F894DEBF0FBEE2
:1007D000CDBFDF91CF911F910F91FF90EF900895C2
:1007E00087B18E7F87B9EAE7F0E0808187688083F0
:1007F00080E480937C000895ECE7F0E090818F70B6
:10080000982B9083EAE7F0E0808180648083809178
:100810007A0084FFFCCFEAE7F0E08081806180838A
:100820008FEC97E00197F1F700C00000809178000D
:10083000909179000895CF92DF92EF92FF92CF933B
:10084000DF93EC018FEF93E0BC016C1B7D0B072E57
:10085000000C880B990B0E94940920E030E040E2E4
:1008600051E40E94700A6B017C01BE01DD0F880B10
:10087000990B0E9494099B01AC01C701B6010E942B
:10088000EA08DF91CF91FF90EF90DF90CF9008952D
:10089000CF92DF92EF92FF92CF93DF93C12CD12CB6
:1008A0007601C0E0D0E017C080E00E94FC030E9407
:1008B0001B049B01AC01C701B6010E947E086B01BD
:1008C0007C012FEF89E698E1215080409040E1F7CC
:1008D00000C000002196C233D10534F320E030E09F
:1008E00048E452E4C701B6010E94EA082EEA37E460
:1008F0004DE151E40E94EA08DF91CF91FF90EF9023
:10090000DF90CF9008950F931F93CF93DF9384E9E7
:100910000E94F1018BE692E00E9413020E944804BB
:1009200060932601709327018093280190932901F9
:1009300060912601709127018091280190912901F1
:1009400005E613E022E046E00E94120C84E90E94D2
:10095000F1018BE792E00E94130284ED0E94F10105
:10096000C2E3D3E082E590E3998388838DE390E04E
:100970009B838A83B801CE010E94320CDE010D9068
:100980000020E9F7119785E0EDE8F2E001900D9283
:100990008A95E1F7CE010E9413022FEF8BE792E9CF
:1009A000215080409040E1F700C000000E942002EA
:1009B000DF91CF911F910F910895CF92DF92EF9227
:1009C000FF92CF93DF93C12CD12C7601C0E0D0E011
:1009D00017C080E00E94FC030E941B049B01AC0135
:1009E000C701B6010E947E086B017C012FEF80E7F2
:1009F00092E0215080409040E1F700C00000219635
:100A0000C530D10534F320E030E040EA50E4C701BE
:100A1000B6010E94EA08DF91CF91FF90EF90DF903E
:100A2000CF900895CF93DF93EA010E94280A2C818A
:100A30003D814E815F810E947D08288539854A85E8
:100A40005B850E94EA08288139814A815B810E9486
:100A50007E089B01AC0160E070E080E291E40E94BE
:100A6000DD0A0E945C09CB01DF91CF910895411509
:100A7000510529F44AE151E00E94120508954130E0
:100A8000510529F44EE051E00E941205089580E0DE
:100A900090E008950E94DD04209126013091270105
:100AA00040912801509129010E94EA0840E050E05D
:100AB0000E94370590934F0380934E034AE06CE702
:100AC00073E00E943D0C85E0E2E9F2E0A2E3B3E0CE
:100AD00001900D928A95E1F76CE773E082E393E071
:100AE0000E94320C61E084E00E94490282E393E0BC
:100AF0000E9413020E94DD042091260130912701FB
:100B000040912801509129010E94EA0841E050E0FB
:100B10000E94370590938D0380938C034AE06EE822
:100B200073E00E943D0C85E0E7E9F2E0A2E3B3E068
:100B300001900D928A95E1F76EE873E082E393E00D
:100B40000E94320C6BE084E00E94490282E393E051
:100B50000E9413020E94DD0420912601309127019A
:100B600040912801509129010E94EA0840E050E09C
:100B70000E943705892B81F466E084E00E944902D7
:100B80008CE992E00E94130260E184E00E94490235
:100B90008CE992E00E941302089581E080936E0038
:100BA00086E086BD85E085BD10927B0310927A03B6
:100BB00008951F920F920FB60F9211248F9381E028
:100BC00080936E0086E086BD85E085BD85B181603D
:100BD00085B910927B0310927A038F910F900FBE0C
:100BE0000F901F9018951F920F920FB60F9211241D
:100BF0002F938F939F9380917A0390917B038039F9
:100C000021E09207A4F495B181E0892785B99BB1D1
:100C100080E489278BB986E086BD80917A03909124
:100C20007B03019690937B0380937A0310C08039F5
:100C300091406CF010927B0310927A0385B18E7F05
:100C400085B98BB18F7B8BB985B5887F85BD9F9129
:100C50008F912F910F900FBE0F901F9018951F929C
:100C60000F920FB60F9211248F938BB180628BB9C4
:100C700084E0809381008BE0809385008CED8093ED
:100C8000840081E080936F00109278038DB38E7F93
:100C90008DBB8F910F900FBE0F901F9018951F92D4
:100CA0000F920FB60F9211242F933F934F935F93A0
:100CB0006F937F938F939F93AF93BF93EF93FF9324
:100CC000809178038F5F80937803809178038F30D1
:100CD000A9F48BB18F7D8BB980912103813011F400
:100CE0000E94CD05E1E8F0E08081887F80838DB3AC
:100CF00081608DBB8BB18F7D8BB906C08BE08093FB
:100D000085008CED80938400FF91EF91BF91AF91AE
:100D10009F918F917F916F915F914F913F912F9113
:100D20000F900FBE0F901F9018951F920F920FB645
:100D30000F9211242F938F939F932091C60080913F
:100D4000290390912A038130910589F08230910521
:100D5000D1F0892B81F5283371F580912903909189
:100D60002A03019690932A038093290324C02333F6
:100D700011F58091290390912A03019690932A03FB
:100D80008093290318C0223619F0243759F013C074
:100D900010922A031092290342990DC088B18460F1
:100DA00088B909C010922A0310922903429B03C0FC
:100DB00088B18B7F88B99F918F912F910F900FBE33
:100DC0000F901F9018950E9411010E942A020E9404
:100DD0000F030E9432030E94F0030E9483048AB131
:100DE0008B7F8AB98BB18B7F8BB98AB1877F8AB9A8
:100DF0008BB1877F8BB98AB180628AB98AB18F7EC5
:100E00008AB98BB18F7E8BB984B1816084B985B189
:100E10008E7F85B98AB180688AB98BB18F778BB99B
:100E20008AB180648AB98BB18F7B8BB987B18460BA
:100E300087B988B18B7F88B9E9E6F0E0808182606C
:100E400080838081816080838DB381608DBB808150
:100E50008860808380818B7F80838DB382608DBB2F
:100E600078940E944A050E94740380E00E947202F6
:100E700080912203813061F04C9B0AC0809147032E
:100E80008093200388B1846088B981E08093220335
:100E90004C990EC088B18B7F88B985B18E7F85B99A
:100EA0001092220310922103809147038093200324
:100EB0008091470390E020912003821B91090A97BB
:100EC0003CF0809147038093200381E080932103CD
:100ED0009091750380914803981731F180917503C3
:100EE0008093480390914803809164031F929F93DD
:100EF0008F731F928F9382EA92E09F938F9380E586
:100F000093E09F938F930E94620C80E80E94F1010E
:100F100080E593E00E9413028DB79EB708960FB646
:100F2000F8949EBF0FBE8DBF90914D0380916403D6
:100F30009817C1F18091640380934D0383E00E9470
:100F40008D02E0917703F0E0319720917603909144
:100F5000460380917903EE0FFF1FE050FF4F318170
:100F60003F9330813F931F922F931F929F931F9225
:100F70008F938CEA92E09F938F9380E593E09F9309
:100F80008F930E94620C80EC0E94F10180E593E057
:100F90000E9413028DB79EB70C960FB6F8949EBFB1
:100FA0000FBE8DBF0E94B20283E293E00E94030352
:100FB00066E08BE293E00E94E30290932603809325
:100FC000250320912303309124038217930709F00E
:100FD00083C0CBE2D3E06A8170E0762F66278B81F5
:100FE000682B072E000C880B990B0E94940920E0B7
:100FF00030E040E251E40E94EA0860939E0370935F
:101000009F038093A0039093A10300E513E021E0E8
:1010100044E00E94120CF80101900020E9F731979A
:1010200085E290E09183808360E183E00E94490241
:10103000C8010E9413026CE083E00E9449028FEB1A
:1010400092E00E9413026C816F7770E0762F662722
:101050008D81EB01C82BC23C91E0D90734F00E948E
:10106000CD058BB180588BB903C08BB18F778BB90D
:10107000BE01DD0F880B990B0E94940920E030E03F
:1010800040E251E40E94EA086093490370934A03E6
:1010900080934B0390934C0300E513E021E044E080
:1010A0000E94120CF80101900020E9F7319780EBC3
:1010B00093E491838083128261E083E00E9449027D
:1010C00084EC92E00E94130265E083E00E944902F2
:1010D000C8010E941302C5CE65E083E00E94490268
:1010E00089EC92E00E9413026CE083E00E944902C6
:1010F00089EC92E00E941302B4CE5058BB27AA2775
:101100000E9495080C94E6090E94D80938F00E94C4
:10111000DF0920F039F49F3F19F426F40C94D50927
:101120000EF4E095E7FB0C94CF09E92F0E94F70934
:1011300058F3BA17620773078407950720F079F40C
:10114000A6F50C94190A0EF4E0950B2EBA2FA02DDB
:101150000B01B90190010C01CA01A0011124FF2764
:10116000591B99F0593F50F4503E68F11A16F0405F
:10117000A22F232F342F4427585FF3CF469537955E
:101180002795A795F0405395C9F77EF41F16BA0B23
:10119000620B730B840BBAF09150A1F0FF0FBB1FD1
:1011A000661F771F881FC2F70EC0BA0F621F731F1A
:1011B000841F48F4879577956795B795F7959E3F77
:1011C00008F0B0CF9395880F08F09927EE0F979508
:1011D000879508950E94FE080C94E6090E94DF0995
:1011E00058F00E94D80940F029F45F3F29F00C9490
:1011F000CF0951110C941A0A0C94D5090E94F709D1
:1012000068F39923B1F3552391F3951B550BBB2735
:10121000AA2762177307840738F09F5F5F4F220F7A
:10122000331F441FAA1FA9F335D00E2E3AF0E0E871
:1012300032D091505040E695001CCAF72BD0FE2FBB
:1012400029D0660F771F881FBB1F2617370748074F
:10125000AB07B0E809F0BB0B802DBF01FF27935807
:101260005F4F3AF09E3F510578F00C94CF090C94F3
:101270001A0A5F3FE4F3983ED4F386957795679515
:10128000B795F7959F5FC9F7880F911D969587953C
:1012900097F90895E1E0660F771F881FBB1F62175B
:1012A00073078407BA0720F0621B730B840BBA0B19
:1012B000EE1F88F7E09508950E9463096894B111C4
:1012C0000C941A0A08950E94FF0988F09F5798F01D
:1012D000B92F9927B751B0F0E1F0660F771F881F3B
:1012E000991F1AF0BA95C9F714C0B13091F00E9455
:1012F000190AB1E008950C94190A672F782F8827EE
:10130000B85F39F0B93FCCF3869577956795B3957B
:10131000D9F73EF490958095709561957F4F8F4FEA
:101320009F4F0895E89409C097FB3EF490958095EF
:10133000709561957F4F8F4F9F4F9923A9F0F92F9B
:1013400096E9BB279395F695879577956795B79519
:10135000F111F8CFFAF4BB0F11F460FF1BC06F5FFF
:101360007F4F8F4F9F4F16C0882311F096E911C011
:10137000772321F09EE8872F762F05C0662371F032
:1013800096E8862F70E060E02AF09A95660F771F46
:10139000881FDAF7880F9695879597F9089597F93A
:1013A0009F6780E870E060E008959FEF80EC08950B
:1013B00000240A9416161706180609060895002434
:1013C0000A9412161306140605060895092E0394AE
:1013D000000C11F4882352F0BB0F40F4BF2B11F422
:1013E00060FF04C06F5F7F4F8F4F9F4F089557FD81
:1013F0009058440F551F59F05F3F71F04795880F83
:1014000097FB991F61F09F3F79F087950895121619
:1014100013061406551FF2CF4695F1DF08C01616C5
:1014200017061806991FF1CF869571056105089476
:101430000895E894BB2766277727CB0197F908958D
:1014400016F00C94670B0C94D50968940C94CF0992
:101450000E94FF09A8F39923C1F3AEF3DF93CF9362
:101460001F930F93FF92C92FDD2788232AF021971E
:10147000660F771F881FDAF720E030E040E85FEB67
:101480009FE3883920F0803E38F021968F770E94C4
:101490007E08E8E6F0E004C00E947E08E5E9F0E09E
:1014A0000E94750B8B01BE01EC01FB2E6F57710979
:1014B0007595771F880B990B0E94940928E132E7F4
:1014C00041E35FE30E94830AAF2D9801AE01FF90D4
:1014D0000F911F91CF91DF910E9495080C94E6091E
:1014E0000E94830A0C94E6090E94D80938F00E94F1
:1014F000DF0920F0952311F00C94CF090C94D50945
:1015000011240C941A0A0E94F70970F3959FC1F3F5
:10151000950F50E0551F629FF001729FBB27F00DA1
:10152000B11D639FAA27F00DB11DAA1F649F6627F6
:10153000B00DA11D661F829F2227B00DA11D621F45
:10154000739FB00DA11D621F839FA00D611D221FFF
:10155000749F3327A00D611D231F849F600D211DE3
:10156000822F762F6A2F11249F5750409AF0F1F066
:1015700088234AF0EE0FFF1FBB1F661F771F881FCF
:1015800091505040A9F79E3F510580F00C94CF092F
:101590000C941A0A5F3FE4F3983ED4F3869577954E
:1015A0006795B795F795E7959F5FC1F7FE2B880F75
:1015B000911D9695879597F90895FA01EE0FFF1FF3
:1015C000309621053105A1F16115710561F480386E
:1015D000BFE39B0749F168949038810561F080383A
:1015E000BFEF9B0741F099234AF5FF3FE105310525
:1015F000210519F1E8940894E795D901AA2329F463
:10160000AB2FBE2FF85FD0F310C0FF5F70F4A6952C
:10161000E0F7F73950F019F0FF3A38F49F779F93CD
:101620000DD00F9007FC9058089546F00C94D50902
:1016300060E070E080E89FE308954FE79F775F9355
:101640004F933F932F930E94280A2F913F914F91E0
:101650005F910E94700A0C94350B29F416F00C94DB
:10166000CF090C94190A0C94D5090E94FF09A8F31C
:101670009638A0F707F80F92E8942BE33AEA48EB84
:101680005FE70E94860A0F920F920F924DB75EB7E6
:101690000F920E94DE0BE2ECF0E00E94750B4F917E
:1016A0005F91EF91FF91E595EE1FFF1F49F0FE5707
:1016B000E0684427EE0F441FFA95E1F74195550B7A
:1016C0000E94A80B0F9007FE0C949C0B08959F3F5F
:1016D00031F0915020F4879577956795B795880FED
:1016E000911D9695879597F90895DF93CF931F9352
:1016F0000F93FF92EF92DF927B018C01689406C0FA
:10170000DA2EEF010E94830AFE01E894A59125914B
:10171000359145915591A6F3EF010E949508FE0180
:101720009701A801DA9469F7DF90EF90FF900F918D
:101730001F91CF91DF9108959B01AC0160E070E0B3
:1017400080E89FE30C94EA080C94CF090C94670B93
:101750000E94FF09D8F39923C9F3940F511DA3F3F5
:101760009150504094F059F0882332F0660F771F63
:10177000881F91505040C1F79E3F51052CF7880FAC
:10178000911D9695879597F908955F3FACF0983E27
:101790009CF0BB27869577956795B79508F4B1605F
:1017A0009395C1F7BB0F58F711F460FFE8CF6F5F57
:1017B0007F4F8F4F9F4FE3CF0C941A0AFA01DC0141
:1017C000AA0FBB1F9B01AC01BF5728F42227332768
:1017D0004427507820C0B75190F4AB2F0024469591
:1017E00037952795011CA395D2F3002071F0220FA5
:1017F000331F441FB395DAF30ED00C947D0861308B
:101800007105A0E88A07B94630F49B01AC01662750
:10181000772788279078309621F020833183428380
:1018200053830895EF920F931F93CF93DF93E801B3
:1018300047FD02C034E001C034E1042E000C550B1A
:1018400057FF03C0519541955109E32E022F242FD4
:10185000AE010E94650ECE01DF91CF911F910F91D5
:10186000EF900895FB01DC010D900020E9F711973E
:1018700001900D920020E1F70895BB274A3031F422
:10188000992322F4BDE2909581959F4F0C94490CC9
:10189000BB27FB015527AA27880F991FAA1FA4174A
:1018A00010F0A41B83955051B9F7A05DAA3308F03E
:1018B000A95DA193009779F7B111B1931192CB0172
:1018C0000C94AD10AEE0B0E0E8E6FCE00C946511DD
:1018D0000D891E8986E08C831A8309838FEF9FE729
:1018E0009E838D83AE01475E5F4F6F89788DCE01F9
:1018F00001960E94840CEF81F885E00FF11F1082A1
:101900002E96E4E00C948111ABE0B0E0EAE8FCE054
:101910000C9457116C017B018A01FC01178216821D
:10192000838181FFCCC1CE0101963C01F6019381F8
:10193000F70193FD859193FF81917F01882309F43D
:10194000BAC1853239F493FD859193FF81917F016E
:10195000853229F4B60190E00E94BD10E7CF912CAA
:10196000212C312CFFE1F315D8F08B3279F038F4CB
:10197000803279F08332A1F4232D20611DC08D3295
:1019800061F0803369F4232D216016C0832D8260BD
:10199000382EE32DE4603E2E2AC0F32DF8601DC0E2
:1019A00037FC2DC020ED280F2A3040F08E32B9F4DC
:1019B00036FC81C1232D2064322E19C036FE06C0AC
:1019C0008AE0989E200D1124922E11C0EAE02E9EEE
:1019D000200D1124222EF32DF0623F2E08C08C36EC
:1019E00021F4832D8068382E02C0883641F4F70137
:1019F00093FD859193FF81917F018111B3CF982F42
:101A00009F7D9554933028F40C5F1F4F9FE399837B
:101A10000DC0833631F0833771F0833509F059C03A
:101A200021C0F801808189830E5F1F4F8824839431
:101A3000912C530113C02801F2E04F0E511CF80104
:101A4000A080B18036FE03C0692D70E002C06FEF48
:101A50007FEFC5010E94A2104C018201F32DFF7798
:101A60003F2E16C0280122E0420E511CF801A08032
:101A7000B18036FE03C0692D70E002C06FEF7FEFCA
:101A8000C5010E9497104C01F32DF0683F2E820192
:101A900033FC1BC0822D90E088169906B0F4B60185
:101AA00080E290E00E94BD102A94F4CFF50137FC4B
:101AB000859137FE81915F01B60190E00E94BD10D3
:101AC00021102A9421E0821A91088114910471F75F
:101AD000E8C0843611F0893641F5F80137FE07C0B9
:101AE00060817181828193810C5F1F4F08C060818A
:101AF0007181072E000C880B990B0E5F1F4FF32D81
:101B0000FF763F2E97FF09C090958095709561955F
:101B10007F4F8F4F9F4FF0683F2E2AE030E0A301A8
:101B20000E94F910882E861845C0853731F4232D80
:101B30002F7EB22E2AE030E025C0932D997FB92E5A
:101B40008F36C1F018F4883579F0B5C0803719F0B8
:101B5000883721F0B0C0E92FE061BE2EB4FE0DC081
:101B6000FB2DF460BF2E09C034FE0AC0292F266069
:101B7000B22E06C028E030E005C020E130E002C00F
:101B800020E132E0F801B7FE07C0608171818281F7
:101B900093810C5F1F4F06C06081718180E090E0EF
:101BA0000E5F1F4FA3010E94F910882E8618FB2D8F
:101BB000FF773F2E36FE0DC0232D2E7FA22E8914D7
:101BC00058F434FE0BC032FC09C0832D8E7EA82E43
:101BD00005C0B82CA32C03C0B82C01C0B92CA4FE9E
:101BE0000FC0FE01E80DF11D8081803321F49A2D94
:101BF000997EA92E09C0A2FE06C0B394B39404C076
:101C00008A2D867809F0B394A3FC11C0A0FE06C00B
:101C1000B21488F4280C922C9B180EC0B21460F4F5
:101C2000B60180E290E00E94BD10B394F7CFB214E9
:101C300018F42B1802C0982C212CA4FE10C0B60159
:101C400080E390E00E94BD10A2FE17C0A1FC03C07B
:101C500088E790E002C088E590E0B6010CC08A2DCC
:101C6000867859F0A1FE02C08BE201C080E2A7FC99
:101C70008DE2B60190E00E94BD10891438F4B601DF
:101C800080E390E00E94BD109A94F7CF8A94F3010C
:101C9000E80DF11D8081B60190E00E94BD10811019
:101CA000F5CF222009F442CEB60180E290E00E94F6
:101CB000BD102A94F6CFF6018681978102C08FEF7E
:101CC0009FEF2B96E2E10C947311A9E0B0E0EBE6F4
:101CD000FEE00C945D116A01122FB02E2BE3201749
:101CE00020F0FF24F394F00E02C02CE3F22E0F2D0F
:101CF00027E0AE014F5F5F4F0E94BF0FBC014981DB
:101D0000842F8970813031F0E1FC06C0E0FE06C00E
:101D100090E205C09DE203C09BE201C090E05E2D11
:101D2000507143FF3CC0911102C083E001C084E0C8
:101D3000811718F4212F281B01C020E051110BC07E
:101D4000F601822F30E2882319F031938150FBCFC6
:101D5000C20ED11C20E0992329F0D6019C93F601F4
:101D600031966F01C6010396E2FE0AC03EE4D60139
:101D70003C9341E411964C93119712963C9306C004
:101D80003EE6F601308341E641833283FC01322F87
:101D900040E2332309F442C041933150FACF42FF6D
:101DA00044C0911102C083E001C084E0811718F49F
:101DB000212F281B01C020E051110BC0F601822FFA
:101DC00030E2882319F031938150FBCFC20ED11C31
:101DD00020E0992329F0D6019C93F60131966F01FA
:101DE000C6010396E2FE0BC039E4D6013C933EE403
:101DF00011963C93119736E412963C9307C039E64E
:101E0000F60130833EE6318336E63283FC01322F21
:101E100040E2332319F041933150FBCFFC01E20F34
:101E2000F11D10828EEF9FEFA6C021E030E09111EE
:101E300002C020E030E0161617061CF4FB013196B4
:101E400002C0E1E0F0E02E0F3F1FBB2021F0EB2DA0
:101E5000F0E0319602C0E0E0F0E02E0F3F1FE12FEE
:101E6000F0E02E173F071CF4121B212F01C020E0C9
:101E70008E2D887159F4F601822F30E2882319F0F3
:101E800031938150FBCFC20ED11C20E0992329F061
:101E9000D6019C93F60131966F0151110BC0F601EA
:101EA000822F90E3882319F091938150FBCFC20ECB
:101EB000D11C20E00F2D060F9A81342F307144FF82
:101EC00003C0913309F40150101624F4093018F0BE
:101ED00008E001C001E0AB0177FF02C040E050E044
:101EE000FB01E41BF50BA1E0B0E0AC0FBD1FEA0F56
:101EF000FB1F8EE2A82E4B01801A91080B2D10E0DB
:101F00001195019511094F3FBFEF5B0721F4D601F1
:101F1000AC9211966D01641775072CF08416950626
:101F200014F4818101C080E3415051093196D601FA
:101F300011967D014017510724F0D6018C9367015B
:101F4000E2CF6417750739F4963320F4953319F40A
:101F5000311101C081E3F6018083F701822F90E205
:101F6000882319F091938150FBCFF701E20FF11D07
:101F7000108280E090E02996ECE00C9479112830F2
:101F800008F027E03327DA01990F311D87FD9160B2
:101F900000966105710539F432602E5F3D9330E3A0
:101FA0002A95E1F708959F3F30F08038710561056B
:101FB00009F03C5F3C5F3D93913008F08068911DD3
:101FC000DF93CF931F930F93FF92EF92192F987F78
:101FD0009695E92F96959695E90FFF27EC5BFE4FB6
:101FE00099273327EE24FF24A701E70105900894E1
:101FF000079428F4360FE71EF81E491F511D660F7F
:10200000771F881F991F0694A1F70590079428F45D
:10201000E70EF81E491F561FC11D770F881F991F15
:10202000661F0694A1F70590079428F4F80E491F3F
:10203000561FC71FD11D880F991F661F771F069453
:10204000A1F70590079420F4490F561FC71FD81F0A
:10205000990F661F771F881F0694A9F78491109522
:10206000177041F0D695C79557954795F794E79423
:102070001A95C1F7EAEEF0E0689415901591359144
:102080006591959105907FE27395E118F10A430BF4
:10209000560BC90BD009C0F7E10CF11E431F561FA8
:1020A000C91FD01D7EF4703311F48A95E6CFE894F1
:1020B000015030F0080F0AF40027021708F4202F0F
:1020C0002395022F7A3328F079E37D932A95E9F757
:1020D00010C07D932A9589F6069497956795379554
:1020E00017951794E118F10A430B560BC90BD00949
:1020F00098F023957E9173957A3308F070E37C9382
:102100002013B8F77E9170617D9330F0839571E371
:102110007D9370E32A95E1F71124EF90FF900F91E2
:102120001F91CF91DF91992787FD90950895FC012C
:102130000590615070400110D8F7809590958E0FF2
:102140009F1F0895FC016150704001900110D8F765
:10215000809590958E0F9F1F0895DC01FC01672FDD
:1021600071917723E1F7329704C07C916D9370836E
:102170006291AE17BF07C8F308950F931F93CF93D3
:10218000DF93FB01238121FD03C08FEF9FEF2CC064
:1021900022FF16C04681578124813581421753079B
:1021A00044F4A081B1819D012F5F3F4F3183208393
:1021B0008C93268137812F5F3F4F3783268314C04E
:1021C0008B01EC01FB010084F185E02D0995892B41
:1021D000E1F6D80116968D919C9117970196179666
:1021E0009C938E931697CE01DF91CF911F910F9103
:1021F0000895FA01AA27283051F1203181F1E8949D
:102200006F936E7F6E5F7F4F8F4F9F4FAF4FB1E0E9
:102210003ED0B4E03CD0670F781F891F9A1FA11DE4
:10222000680F791F8A1F911DA11D6A0F711D811DE5
:10223000911DA11D20D009F468943F912AE0269FAA
:1022400011243019305D3193DEF6CF010895462F09
:102250004770405D4193B3E00FD0C9F7F6CF462FEA
:102260004F70405D4A3318F0495D31FD4052419353
:1022700002D0A9F7EACFB4E0A69597958795779510
:102280006795BA95C9F700976105710508959B0197
:10229000AC010A2E06945795479537952795BA9520
:1022A000C9F7620F731F841F951FA01D08952F92F9
:1022B0003F924F925F926F927F928F929F92AF92D6
:1022C000BF92CF92DF92EF92FF920F931F93CF9323
:1022D000DF93CDB7DEB7CA1BDB0B0FB6F894DEBFBA
:1022E0000FBECDBF09942A88398848885F846E84E0
:1022F0007D848C849B84AA84B984C884DF80EE802A
:10230000FD800C811B81AA81B981CE0FD11D0FB632
:10231000F894DEBF0FBECDBFED010895F894FFCF56
:10232000D002D402D802DC02E002E402E802333335
:10233000134014AE073FF628DCBE33331340CDCC38
:102340004C3E6666E6BE0000204141540D0A004145
:102350005445300D0A0041542B43574D4F44453DE1
:10236000310D0A0041542B4349504D55583D300D15
:102370000A0041542B43574A41503D2255797979FF
:10238000222C226D696E6875793833220D0A004758
:102390004554202F6B69656D7472612E70687020D2
:1023A000485454502F312E310D0A486F73743A201F
:1023B0006D79686F6D656D6F6E69746F72696E6748
:1023C0003833312E303030776562686F73746170E6
:1023D000702E636F6D0D0A0D0A0041542B43495056
:1023E00053544152543D22544350222C223134350F
:1023F0002E31342E3134352E313837222C38300DF1
:102400000A0041542B43495053454E443D25690D24
:102410000A0041542B434950434C4F53450D0A0089
:10242000474554202F7365727665722E7068703F31
:102430006C70673D256926736D6B3D25692668754F
:102440006D3D252E32662674656D703D252E3266F3
:1024500020485454502F312E310D0A486F73743A6E
:10246000206D79686F6D656D6F6E69746F72696EDE
:10247000673833312E303030776562686F7374613E
:1024800070702E636F6D0D0A0D0A00436875616EE2
:1024900020686F612052302E2E2E00436875616EC9
:1024A00020686F6120786F6E672E2E2E004B4F686C
:1024B0006D004C50473D00534D4F3D0020202020E3
:1024C0002000253032783A253032780025303278B5
:1024D0002F253032782F253032782025337300486D
:1024E000756D3D0054656D3D00202D2D2E2D200075
:1024F00053756E004D6F6E0054756500576564002E
:102500005468750046726900536174006D79686F94
:102510006D656D6F6E69746F72696E673833312ED9
:10252000303030776562686F73746170702E636FDE
:102530006D006D696E687579383300557979790069
:00000001FF
